{
  "contractName": "Record",
  "abi": [
    {
      "inputs": [],
      "payable": false,
      "stateMutability": "nonpayable",
      "type": "constructor"
    },
    {
      "constant": true,
      "inputs": [
        {
          "internalType": "uint256",
          "name": "",
          "type": "uint256"
        }
      ],
      "name": "allProposals",
      "outputs": [
        {
          "internalType": "string",
          "name": "proposedByWho",
          "type": "string"
        },
        {
          "internalType": "string",
          "name": "tokenName",
          "type": "string"
        },
        {
          "internalType": "uint256",
          "name": "startPrice",
          "type": "uint256"
        },
        {
          "internalType": "uint256",
          "name": "estimatedPrice",
          "type": "uint256"
        },
        {
          "internalType": "uint256",
          "name": "time",
          "type": "uint256"
        },
        {
          "internalType": "string",
          "name": "description",
          "type": "string"
        }
      ],
      "payable": false,
      "stateMutability": "view",
      "type": "function"
    },
    {
      "constant": true,
      "inputs": [],
      "name": "owner",
      "outputs": [
        {
          "internalType": "address",
          "name": "",
          "type": "address"
        }
      ],
      "payable": false,
      "stateMutability": "view",
      "type": "function"
    },
    {
      "constant": false,
      "inputs": [
        {
          "internalType": "uint256",
          "name": "index",
          "type": "uint256"
        }
      ],
      "name": "deleteByIndex",
      "outputs": [
        {
          "internalType": "uint256",
          "name": "",
          "type": "uint256"
        }
      ],
      "payable": false,
      "stateMutability": "nonpayable",
      "type": "function"
    },
    {
      "constant": true,
      "inputs": [],
      "name": "getLength",
      "outputs": [
        {
          "internalType": "uint256",
          "name": "",
          "type": "uint256"
        }
      ],
      "payable": false,
      "stateMutability": "view",
      "type": "function"
    },
    {
      "constant": false,
      "inputs": [
        {
          "internalType": "string",
          "name": "name",
          "type": "string"
        },
        {
          "internalType": "string",
          "name": "tokenName",
          "type": "string"
        },
        {
          "internalType": "uint256",
          "name": "start",
          "type": "uint256"
        },
        {
          "internalType": "uint256",
          "name": "estimate",
          "type": "uint256"
        },
        {
          "internalType": "string",
          "name": "desc",
          "type": "string"
        }
      ],
      "name": "addProposal",
      "outputs": [],
      "payable": false,
      "stateMutability": "nonpayable",
      "type": "function"
    },
    {
      "constant": true,
      "inputs": [],
      "name": "showFirstProposal",
      "outputs": [
        {
          "internalType": "string",
          "name": "",
          "type": "string"
        }
      ],
      "payable": false,
      "stateMutability": "view",
      "type": "function"
    }
  ],
  "bytecode": "0x60806040523480156200001157600080fd5b50336000806101000a81548173ffffffffffffffffffffffffffffffffffffffff021916908373ffffffffffffffffffffffffffffffffffffffff1602179055506200005c620001e0565b6040518060c001604052806040518060400160405280600481526020017f6d61726b0000000000000000000000000000000000000000000000000000000081525081526020016040518060400160405280600481526020017f6b70337200000000000000000000000000000000000000000000000000000000815250815260200160fa815260200161022681526020014281526020016040518060400160405280600281526020017f616300000000000000000000000000000000000000000000000000000000000081525081525090506001819080600181540180825580915050906001820390600052602060002090600602016000909192909190915060008201518160000190805190602001906200017992919062000216565b5060208201518160010190805190602001906200019892919062000216565b5060408201518160020155606082015181600301556080820151816004015560a0820151816005019080519060200190620001d592919062000216565b5050505050620002c5565b6040518060c001604052806060815260200160608152602001600081526020016000815260200160008152602001606081525090565b828054600181600116156101000203166002900490600052602060002090601f016020900481019282601f106200025957805160ff19168380011785556200028a565b828001600101855582156200028a579182015b82811115620002895782518255916020019190600101906200026c565b5b5090506200029991906200029d565b5090565b620002c291905b80821115620002be576000816000905550600101620002a4565b5090565b90565b610d6680620002d56000396000f3fe608060405234801561001057600080fd5b50600436106100625760003560e01c80631e69607e146100675780632d0c569f146100a957806345a44a101461012c5780638da5cb5b14610329578063938351b814610373578063be1c766b14610507575b600080fd5b6100936004803603602081101561007d57600080fd5b8101908080359060200190929190505050610525565b6040518082815260200191505060405180910390f35b6100b1610605565b6040518080602001828103825283818151815260200191508051906020019080838360005b838110156100f15780820151818401526020810190506100d6565b50505050905090810190601f16801561011e5780820380516001836020036101000a031916815260200191505b509250505060405180910390f35b610327600480360360a081101561014257600080fd5b810190808035906020019064010000000081111561015f57600080fd5b82018360208201111561017157600080fd5b8035906020019184600183028401116401000000008311171561019357600080fd5b91908080601f016020809104026020016040519081016040528093929190818152602001838380828437600081840152601f19601f820116905080830192505050505050509192919290803590602001906401000000008111156101f657600080fd5b82018360208201111561020857600080fd5b8035906020019184600183028401116401000000008311171561022a57600080fd5b91908080601f016020809104026020016040519081016040528093929190818152602001838380828437600081840152601f19601f8201169050808301925050505050505091929192908035906020019092919080359060200190929190803590602001906401000000008111156102a157600080fd5b8201836020820111156102b357600080fd5b803590602001918460018302840111640100000000831117156102d557600080fd5b91908080601f016020809104026020016040519081016040528093929190818152602001838380828437600081840152601f19601f820116905080830192505050505050509192919290505050610847565b005b610331610932565b604051808273ffffffffffffffffffffffffffffffffffffffff1673ffffffffffffffffffffffffffffffffffffffff16815260200191505060405180910390f35b61039f6004803603602081101561038957600080fd5b8101908080359060200190929190505050610957565b6040518080602001806020018781526020018681526020018581526020018060200184810384528a818151815260200191508051906020019080838360005b838110156103f95780820151818401526020810190506103de565b50505050905090810190601f1680156104265780820380516001836020036101000a031916815260200191505b50848103835289818151815260200191508051906020019080838360005b8381101561045f578082015181840152602081019050610444565b50505050905090810190601f16801561048c5780820380516001836020036101000a031916815260200191505b50848103825285818151815260200191508051906020019080838360005b838110156104c55780820151818401526020810190506104aa565b50505050905090810190601f1680156104f25780820380516001836020036101000a031916815260200191505b50995050505050505050505060405180910390f35b61050f610b68565b6040518082815260200191505060405180910390f35b60008060009054906101000a900473ffffffffffffffffffffffffffffffffffffffff1673ffffffffffffffffffffffffffffffffffffffff163373ffffffffffffffffffffffffffffffffffffffff161461058057600080fd5b6001828154811061058d57fe5b9060005260206000209060060201600080820160006105ac9190610b75565b6001820160006105bc9190610b75565b6002820160009055600382016000905560048201600090556005820160006105e49190610b75565b505060018054809190600190036105fb9190610bbd565b5060019050919050565b606061060f610bef565b600160008154811061061d57fe5b90600052602060002090600602016040518060c0016040529081600082018054600181600116156101000203166002900480601f0160208091040260200160405190810160405280929190818152602001828054600181600116156101000203166002900480156106cf5780601f106106a4576101008083540402835291602001916106cf565b820191906000526020600020905b8154815290600101906020018083116106b257829003601f168201915b50505050508152602001600182018054600181600116156101000203166002900480601f0160208091040260200160405190810160405280929190818152602001828054600181600116156101000203166002900480156107715780601f1061074657610100808354040283529160200191610771565b820191906000526020600020905b81548152906001019060200180831161075457829003601f168201915b50505050508152602001600282015481526020016003820154815260200160048201548152602001600582018054600181600116156101000203166002900480601f0160208091040260200160405190810160405280929190818152602001828054600181600116156101000203166002900480156108315780601f1061080657610100808354040283529160200191610831565b820191906000526020600020905b81548152906001019060200180831161081457829003601f168201915b5050505050815250509050806020015191505090565b6000429050610854610bef565b6040518060c001604052808881526020018781526020018681526020018581526020018381526020018481525090506001819080600181540180825580915050906001820390600052602060002090600602016000909192909190915060008201518160000190805190602001906108cd929190610c25565b5060208201518160010190805190602001906108ea929190610c25565b5060408201518160020155606082015181600301556080820151816004015560a0820151816005019080519060200190610925929190610c25565b5050505050505050505050565b6000809054906101000a900473ffffffffffffffffffffffffffffffffffffffff1681565b6001818154811061096457fe5b9060005260206000209060060201600091509050806000018054600181600116156101000203166002900480601f016020809104026020016040519081016040528092919081815260200182805460018160011615610100020316600290048015610a105780601f106109e557610100808354040283529160200191610a10565b820191906000526020600020905b8154815290600101906020018083116109f357829003601f168201915b505050505090806001018054600181600116156101000203166002900480601f016020809104026020016040519081016040528092919081815260200182805460018160011615610100020316600290048015610aae5780601f10610a8357610100808354040283529160200191610aae565b820191906000526020600020905b815481529060010190602001808311610a9157829003601f168201915b505050505090806002015490806003015490806004015490806005018054600181600116156101000203166002900480601f016020809104026020016040519081016040528092919081815260200182805460018160011615610100020316600290048015610b5e5780601f10610b3357610100808354040283529160200191610b5e565b820191906000526020600020905b815481529060010190602001808311610b4157829003601f168201915b5050505050905086565b6000600180549050905090565b50805460018160011615610100020316600290046000825580601f10610b9b5750610bba565b601f016020900490600052602060002090810190610bb99190610ca5565b5b50565b815481835581811115610bea57600602816006028360005260206000209182019101610be99190610cca565b5b505050565b6040518060c001604052806060815260200160608152602001600081526020016000815260200160008152602001606081525090565b828054600181600116156101000203166002900490600052602060002090601f016020900481019282601f10610c6657805160ff1916838001178555610c94565b82800160010185558215610c94579182015b82811115610c93578251825591602001919060010190610c78565b5b509050610ca19190610ca5565b5090565b610cc791905b80821115610cc3576000816000905550600101610cab565b5090565b90565b610d2e91905b80821115610d2a5760008082016000610ce99190610b75565b600182016000610cf99190610b75565b600282016000905560038201600090556004820160009055600582016000610d219190610b75565b50600601610cd0565b5090565b9056fea265627a7a72315820e658eded22c87f72767b1015325569ba62651e7d16762ba240d9c7465af2a69164736f6c63430005100032",
  "source": "// SPDX-License-Identifier: MIT\npragma solidity ^0.5.0;\n\ncontract Record{\n    address public owner;\n    struct proposal{\n        string proposedByWho;\n        string tokenName;\n        uint256 startPrice;\n        uint256 estimatedPrice;\n        uint time;\n        string description;\n    }\n\n    proposal[] public allProposals;\n    \n    constructor() public {\n        owner = msg.sender;\n        proposal memory p = proposal(\"mark\",\"kp3r\",250,550,now,\"ac\");\n        allProposals.push(p);\n    }\n\n    function deleteByIndex(uint index) public returns(uint){\n        require(msg.sender == owner);\n        delete allProposals[index];\n        allProposals.length--;\n        return 1;\n    }\n\n\n    function getLength() public view returns(uint){\n        return allProposals.length;\n    }\n\n    // function getName(uint index) public view returns(string memory){\n    //     //require(allProposals.length > index);\n    //     proposal memory u = allProposals[index];\n    //     return u.proposedByWho; \n    // }\n    // function getTokenName(uint index) public view returns(string memory){\n    //     //require(allProposals.length > index);\n    //     proposal memory u = allProposals[index];\n    //     return u.tokenName; \n    // }\n    // function getStartPrice(uint index) public view returns(uint256){\n    //     //require(allProposals.length > index);\n    //     proposal memory u = allProposals[index];\n    //     return u.startPrice; \n    // }\n    // function getEstimatedPrice(uint index) public view returns(uint256){\n    //     //require(allProposals.length > index);\n    //     proposal memory u = allProposals[index];\n    //     return u.estimatedPrice; \n    // }\n\n    // function getTime(uint index) public view returns(uint){\n    //     //require(allProposals.length > index);\n    //     proposal memory u = allProposals[index];\n    //     return u.time; \n    // }\n    // function getDesc(uint index) public view returns(string memory){\n    //     //require(allProposals.length > index);\n    //     proposal memory u = allProposals[index];\n    //     return u.description; \n    // }\n\n    function addProposal(string memory name, string memory tokenName, uint start, uint estimate,string  memory desc)public {\n        uint time = now;\n        proposal memory newProposal = proposal(name, tokenName, start,estimate, time, desc); \n        allProposals.push(newProposal);\n    }\n\n\n    function showFirstProposal() public view returns(string memory){\n        proposal memory u = allProposals[0];\n        return u.tokenName;\n    }\n}",
  "sourcePath": "/Users/edz/Desktop/record/record_0.0.1_copy的副本/contracts/Record.sol",
  "compiler": {
    "name": "solc",
    "version": "0.5.16+commit.9c3226ce.Emscripten.clang"
  },
  "schemaVersion": "3.3.2",
  "updatedAt": "2020-12-30T07:08:30.860Z",
  "networkType": "ethereum",
  "devdoc": {
    "methods": {}
  },
  "userdoc": {
    "methods": {}
  }
}