{
  "contractName": "Record",
  "abi": [
    {
      "inputs": [],
      "payable": false,
      "stateMutability": "nonpayable",
      "type": "constructor"
    },
    {
      "constant": true,
      "inputs": [
        {
          "internalType": "uint256",
          "name": "",
          "type": "uint256"
        }
      ],
      "name": "allProposals",
      "outputs": [
        {
          "internalType": "string",
          "name": "proposedByWho",
          "type": "string"
        },
        {
          "internalType": "string",
          "name": "tokenName",
          "type": "string"
        },
        {
          "internalType": "uint256",
          "name": "startPrice",
          "type": "uint256"
        },
        {
          "internalType": "uint256",
          "name": "estimatedPrice",
          "type": "uint256"
        },
        {
          "internalType": "uint256",
          "name": "time",
          "type": "uint256"
        },
        {
          "internalType": "string",
          "name": "description",
          "type": "string"
        }
      ],
      "payable": false,
      "stateMutability": "view",
      "type": "function"
    },
    {
      "constant": true,
      "inputs": [],
      "name": "owner",
      "outputs": [
        {
          "internalType": "address",
          "name": "",
          "type": "address"
        }
      ],
      "payable": false,
      "stateMutability": "view",
      "type": "function"
    },
    {
      "constant": true,
      "inputs": [],
      "name": "getLength",
      "outputs": [
        {
          "internalType": "uint256",
          "name": "",
          "type": "uint256"
        }
      ],
      "payable": false,
      "stateMutability": "view",
      "type": "function"
    },
    {
      "constant": false,
      "inputs": [
        {
          "internalType": "string",
          "name": "name",
          "type": "string"
        },
        {
          "internalType": "string",
          "name": "tokenName",
          "type": "string"
        },
        {
          "internalType": "uint256",
          "name": "start",
          "type": "uint256"
        },
        {
          "internalType": "uint256",
          "name": "estimate",
          "type": "uint256"
        },
        {
          "internalType": "string",
          "name": "desc",
          "type": "string"
        }
      ],
      "name": "addProposal",
      "outputs": [],
      "payable": false,
      "stateMutability": "nonpayable",
      "type": "function"
    },
    {
      "constant": true,
      "inputs": [
        {
          "internalType": "uint256",
          "name": "",
          "type": "uint256"
        }
      ],
      "name": "deleteProposal",
      "outputs": [
        {
          "internalType": "uint256",
          "name": "",
          "type": "uint256"
        }
      ],
      "payable": false,
      "stateMutability": "view",
      "type": "function"
    },
    {
      "constant": true,
      "inputs": [],
      "name": "showFirstProposal",
      "outputs": [
        {
          "internalType": "string",
          "name": "",
          "type": "string"
        }
      ],
      "payable": false,
      "stateMutability": "view",
      "type": "function"
    }
  ],
  "bytecode": "0x608060405234801561001057600080fd5b50336000806101000a81548173ffffffffffffffffffffffffffffffffffffffff021916908373ffffffffffffffffffffffffffffffffffffffff1602179055506100596101d8565b6040518060c001604052806040518060400160405280600481526020017f4d61726b0000000000000000000000000000000000000000000000000000000081525081526020016040518060400160405280600381526020017f42544300000000000000000000000000000000000000000000000000000000008152508152602001600a8152602001633b9aca0081526020014281526020016040518060400160405280600c81526020017f676f6c6420616e6420676f640000000000000000000000000000000000000000815250815250905060018190806001815401808255809150509060018203906000526020600020906006020160009091929091909150600082015181600001908051906020019061017692919061020e565b50602082015181600101908051906020019061019392919061020e565b5060408201518160020155606082015181600301556080820151816004015560a08201518160050190805190602001906101ce92919061020e565b50505050506102b3565b6040518060c001604052806060815260200160608152602001600081526020016000815260200160008152602001606081525090565b828054600181600116156101000203166002900490600052602060002090601f016020900481019282601f1061024f57805160ff191683800117855561027d565b8280016001018555821561027d579182015b8281111561027c578251825591602001919060010190610261565b5b50905061028a919061028e565b5090565b6102b091905b808211156102ac576000816000905550600101610294565b5090565b90565b610c0980620002c36000396000f3fe608060405234801561001057600080fd5b50600436106100625760003560e01c80632d0c569f1461006757806345a44a10146100ea5780638259d553146102e75780638da5cb5b14610329578063938351b814610373578063be1c766b14610507575b600080fd5b61006f610525565b6040518080602001828103825283818151815260200191508051906020019080838360005b838110156100af578082015181840152602081019050610094565b50505050905090810190601f1680156100dc5780820380516001836020036101000a031916815260200191505b509250505060405180910390f35b6102e5600480360360a081101561010057600080fd5b810190808035906020019064010000000081111561011d57600080fd5b82018360208201111561012f57600080fd5b8035906020019184600183028401116401000000008311171561015157600080fd5b91908080601f016020809104026020016040519081016040528093929190818152602001838380828437600081840152601f19601f820116905080830192505050505050509192919290803590602001906401000000008111156101b457600080fd5b8201836020820111156101c657600080fd5b803590602001918460018302840111640100000000831117156101e857600080fd5b91908080601f016020809104026020016040519081016040528093929190818152602001838380828437600081840152601f19601f82011690508083019250505050505050919291929080359060200190929190803590602001909291908035906020019064010000000081111561025f57600080fd5b82018360208201111561027157600080fd5b8035906020019184600183028401116401000000008311171561029357600080fd5b91908080601f016020809104026020016040519081016040528093929190818152602001838380828437600081840152601f19601f820116905080830192505050505050509192919290505050610767565b005b610313600480360360208110156102fd57600080fd5b8101908080359060200190929190505050610852565b6040518082815260200191505060405180910390f35b6103316108b6565b604051808273ffffffffffffffffffffffffffffffffffffffff1673ffffffffffffffffffffffffffffffffffffffff16815260200191505060405180910390f35b61039f6004803603602081101561038957600080fd5b81019080803590602001909291905050506108db565b6040518080602001806020018781526020018681526020018581526020018060200184810384528a818151815260200191508051906020019080838360005b838110156103f95780820151818401526020810190506103de565b50505050905090810190601f1680156104265780820380516001836020036101000a031916815260200191505b50848103835289818151815260200191508051906020019080838360005b8381101561045f578082015181840152602081019050610444565b50505050905090810190601f16801561048c5780820380516001836020036101000a031916815260200191505b50848103825285818151815260200191508051906020019080838360005b838110156104c55780820151818401526020810190506104aa565b50505050905090810190601f1680156104f25780820380516001836020036101000a031916815260200191505b50995050505050505050505060405180910390f35b61050f610aec565b6040518082815260200191505060405180910390f35b606061052f610af9565b600160008154811061053d57fe5b90600052602060002090600602016040518060c0016040529081600082018054600181600116156101000203166002900480601f0160208091040260200160405190810160405280929190818152602001828054600181600116156101000203166002900480156105ef5780601f106105c4576101008083540402835291602001916105ef565b820191906000526020600020905b8154815290600101906020018083116105d257829003601f168201915b50505050508152602001600182018054600181600116156101000203166002900480601f0160208091040260200160405190810160405280929190818152602001828054600181600116156101000203166002900480156106915780601f1061066657610100808354040283529160200191610691565b820191906000526020600020905b81548152906001019060200180831161067457829003601f168201915b50505050508152602001600282015481526020016003820154815260200160048201548152602001600582018054600181600116156101000203166002900480601f0160208091040260200160405190810160405280929190818152602001828054600181600116156101000203166002900480156107515780601f1061072657610100808354040283529160200191610751565b820191906000526020600020905b81548152906001019060200180831161073457829003601f168201915b5050505050815250509050806020015191505090565b6000429050610774610af9565b6040518060c001604052808881526020018781526020018681526020018581526020018381526020018481525090506001819080600181540180825580915050906001820390600052602060002090600602016000909192909190915060008201518160000190805190602001906107ed929190610b2f565b50602082015181600101908051906020019061080a929190610b2f565b5060408201518160020155606082015181600301556080820151816004015560a0820151816005019080519060200190610845929190610b2f565b5050505050505050505050565b60008060009054906101000a900473ffffffffffffffffffffffffffffffffffffffff1673ffffffffffffffffffffffffffffffffffffffff163373ffffffffffffffffffffffffffffffffffffffff16146108ad57600080fd5b60019050919050565b6000809054906101000a900473ffffffffffffffffffffffffffffffffffffffff1681565b600181815481106108e857fe5b9060005260206000209060060201600091509050806000018054600181600116156101000203166002900480601f0160208091040260200160405190810160405280929190818152602001828054600181600116156101000203166002900480156109945780601f1061096957610100808354040283529160200191610994565b820191906000526020600020905b81548152906001019060200180831161097757829003601f168201915b505050505090806001018054600181600116156101000203166002900480601f016020809104026020016040519081016040528092919081815260200182805460018160011615610100020316600290048015610a325780601f10610a0757610100808354040283529160200191610a32565b820191906000526020600020905b815481529060010190602001808311610a1557829003601f168201915b505050505090806002015490806003015490806004015490806005018054600181600116156101000203166002900480601f016020809104026020016040519081016040528092919081815260200182805460018160011615610100020316600290048015610ae25780601f10610ab757610100808354040283529160200191610ae2565b820191906000526020600020905b815481529060010190602001808311610ac557829003601f168201915b5050505050905086565b6000600180549050905090565b6040518060c001604052806060815260200160608152602001600081526020016000815260200160008152602001606081525090565b828054600181600116156101000203166002900490600052602060002090601f016020900481019282601f10610b7057805160ff1916838001178555610b9e565b82800160010185558215610b9e579182015b82811115610b9d578251825591602001919060010190610b82565b5b509050610bab9190610baf565b5090565b610bd191905b80821115610bcd576000816000905550600101610bb5565b5090565b9056fea265627a7a72315820cac332de31cad0687d5655d5a366790ffe4ea0433d25016231f4596da345f19164736f6c63430005100032",
  "source": "// SPDX-License-Identifier: MIT\npragma solidity ^0.5.0;\n\ncontract Record{\n    address public owner;\n    struct proposal{\n        string proposedByWho;\n        string tokenName;\n        uint256 startPrice;\n        uint256 estimatedPrice;\n        uint time;\n        string description;\n    }\n\n    proposal[] public allProposals;\n    \n    constructor() public {\n        owner = msg.sender;\n        proposal memory p = proposal(\"Mark\", \"BTC\", 10, 1000000000, now, \"gold and god\");\n        allProposals.push(p);\n    }\n\n\n    function getLength() public view returns(uint){\n        return allProposals.length;\n    }\n\n    // function getName(uint index) public view returns(string memory){\n    //     //require(allProposals.length > index);\n    //     proposal memory u = allProposals[index];\n    //     return u.proposedByWho; \n    // }\n    // function getTokenName(uint index) public view returns(string memory){\n    //     //require(allProposals.length > index);\n    //     proposal memory u = allProposals[index];\n    //     return u.tokenName; \n    // }\n    // function getStartPrice(uint index) public view returns(uint256){\n    //     //require(allProposals.length > index);\n    //     proposal memory u = allProposals[index];\n    //     return u.startPrice; \n    // }\n    // function getEstimatedPrice(uint index) public view returns(uint256){\n    //     //require(allProposals.length > index);\n    //     proposal memory u = allProposals[index];\n    //     return u.estimatedPrice; \n    // }\n\n    // function getTime(uint index) public view returns(uint){\n    //     //require(allProposals.length > index);\n    //     proposal memory u = allProposals[index];\n    //     return u.time; \n    // }\n    // function getDesc(uint index) public view returns(string memory){\n    //     //require(allProposals.length > index);\n    //     proposal memory u = allProposals[index];\n    //     return u.description; \n    // }\n\n    function addProposal(string memory name, string memory tokenName, uint start, uint estimate,string  memory desc)public {\n        uint time = now;\n        proposal memory newProposal = proposal(name, tokenName, start,estimate, time, desc); \n        allProposals.push(newProposal);\n    }\n\n    function deleteProposal(uint) public view returns(uint){\n        require(msg.sender == owner);\n        \n        return 1;\n    }\n    function showFirstProposal() public view returns(string memory){\n        proposal memory u = allProposals[0];\n        return u.tokenName;\n    }\n}",
  "sourcePath": "/Users/edz/Desktop/record/record_0.0.1/contracts/Record.sol",
  "compiler": {
    "name": "solc",
    "version": "0.5.16+commit.9c3226ce.Emscripten.clang"
  },
  "schemaVersion": "3.3.2",
  "updatedAt": "2020-12-28T02:07:01.010Z",
  "networkType": "ethereum",
  "devdoc": {
    "methods": {}
  },
  "userdoc": {
    "methods": {}
  }
}